{
  "transactions": [
    {
      "hash": "0x225e0f18424518415d98d3d27ca693746f6b7fa3de78efbab5e72ca0cca46167",
      "transactionType": "CALL",
      "contractName": null,
      "contractAddress": "0xca35c3fe456a87e6ce7827d1d784741613463204",
      "function": "approve(address,uint256)",
      "arguments": [
        "0xa46A266dCBf199a71532c76967e200994C5A0D6d",
        "10000000000000000000000"
      ],
      "transaction": {
        "from": "0x0990be6db8c785fbbf9ded8baec612a10cae814b",
        "to": "0xca35c3fe456a87e6ce7827d1d784741613463204",
        "gas": "0x1325a",
        "value": "0x0",
        "input": "0x095ea7b3000000000000000000000000a46a266dcbf199a71532c76967e200994c5a0d6d00000000000000000000000000000000000000000000021e19e0c9bab2400000",
        "nonce": "0x18",
        "chainId": "0xaa36a7"
      },
      "additionalContracts": [],
      "isFixedGasLimit": false
    },
    {
      "hash": "0x91b1d09045ba8a6055cb19dc123550db371e129391c4f2313158f39114876885",
      "transactionType": "CALL",
      "contractName": null,
      "contractAddress": "0xa46a266dcbf199a71532c76967e200994c5a0d6d",
      "function": "sendOFT(address,uint32,bytes32,uint256)",
      "arguments": [
        "0x29a5134D3B22F47AD52e0A22A63247363e9F35c2",
        "40255",
        "0x0000000000000000000000000990be6db8c785fbbf9ded8baec612a10cae814b",
        "10000000000000000000000"
      ],
      "transaction": {
        "from": "0x0990be6db8c785fbbf9ded8baec612a10cae814b",
        "to": "0xa46a266dcbf199a71532c76967e200994c5a0d6d",
        "gas": "0x8ab0a",
        "value": "0x4eebc569b0b5",
        "input": "0x3e832c9000000000000000000000000029a5134d3b22f47ad52e0a22a63247363e9f35c20000000000000000000000000000000000000000000000000000000000009d3f0000000000000000000000000990be6db8c785fbbf9ded8baec612a10cae814b00000000000000000000000000000000000000000000021e19e0c9bab2400000",
        "nonce": "0x19",
        "chainId": "0xaa36a7"
      },
      "additionalContracts": [],
      "isFixedGasLimit": false
    }
  ],
  "receipts": [
    {
      "status": "0x1",
      "cumulativeGasUsed": "0x15133a5",
      "logs": [
        {
          "address": "0xca35c3fe456a87e6ce7827d1d784741613463204",
          "topics": [
            "0x8c5be1e5ebec7d5bd14f71427d1e84f3dd0314c0f7b2291e5b200ac8c7c3b925",
            "0x0000000000000000000000000990be6db8c785fbbf9ded8baec612a10cae814b",
            "0x000000000000000000000000a46a266dcbf199a71532c76967e200994c5a0d6d"
          ],
          "data": "0x00000000000000000000000000000000000000000000021e19e0c9bab2400000",
          "blockHash": "0x7d8d6784b4466ab59df45ca9e3c172846b6b330f80cd9c3186c2d1836d430c5a",
          "blockNumber": "0x820125",
          "blockTimestamp": "0x684877e0",
          "transactionHash": "0x225e0f18424518415d98d3d27ca693746f6b7fa3de78efbab5e72ca0cca46167",
          "transactionIndex": "0xdc",
          "logIndex": "0x10e",
          "removed": false
        }
      ],
      "logsBloom": "0x00000000000000000000000000000000000000002000000000000000000000000000000000000000000000000080000000000000000000000000000000202000000000000000000000000000400200000000000000000000000000000000000000000000000000000000000000000000000000000000000000000000000000000001000000000000000000000000000000000000010000000000000000000000020000000000000000000000000000000000000000000000000000000000000000000000000000000000000000000000000000000000000000000000000000000010000000000000000000800000000000000000000000000000400000000000",
      "type": "0x2",
      "transactionHash": "0x225e0f18424518415d98d3d27ca693746f6b7fa3de78efbab5e72ca0cca46167",
      "transactionIndex": "0xdc",
      "blockHash": "0x7d8d6784b4466ab59df45ca9e3c172846b6b330f80cd9c3186c2d1836d430c5a",
      "blockNumber": "0x820125",
      "gasUsed": "0xd179",
      "effectiveGasPrice": "0x1480bd",
      "from": "0x0990be6db8c785fbbf9ded8baec612a10cae814b",
      "to": "0xca35c3fe456a87e6ce7827d1d784741613463204",
      "contractAddress": null
    },
    {
      "status": "0x1",
      "cumulativeGasUsed": "0x1598023",
      "logs": [
        {
          "address": "0xca35c3fe456a87e6ce7827d1d784741613463204",
          "topics": [
            "0x8c5be1e5ebec7d5bd14f71427d1e84f3dd0314c0f7b2291e5b200ac8c7c3b925",
            "0x0000000000000000000000000990be6db8c785fbbf9ded8baec612a10cae814b",
            "0x000000000000000000000000a46a266dcbf199a71532c76967e200994c5a0d6d"
          ],
          "data": "0x0000000000000000000000000000000000000000000000000000000000000000",
          "blockHash": "0x7d8d6784b4466ab59df45ca9e3c172846b6b330f80cd9c3186c2d1836d430c5a",
          "blockNumber": "0x820125",
          "blockTimestamp": "0x684877e0",
          "transactionHash": "0x91b1d09045ba8a6055cb19dc123550db371e129391c4f2313158f39114876885",
          "transactionIndex": "0xde",
          "logIndex": "0x111",
          "removed": false
        },
        {
          "address": "0xca35c3fe456a87e6ce7827d1d784741613463204",
          "topics": [
            "0xddf252ad1be2c89b69c2b068fc378daa952ba7f163c4a11628f55a4df523b3ef",
            "0x0000000000000000000000000990be6db8c785fbbf9ded8baec612a10cae814b",
            "0x000000000000000000000000a46a266dcbf199a71532c76967e200994c5a0d6d"
          ],
          "data": "0x00000000000000000000000000000000000000000000021e19e0c9bab2400000",
          "blockHash": "0x7d8d6784b4466ab59df45ca9e3c172846b6b330f80cd9c3186c2d1836d430c5a",
          "blockNumber": "0x820125",
          "blockTimestamp": "0x684877e0",
          "transactionHash": "0x91b1d09045ba8a6055cb19dc123550db371e129391c4f2313158f39114876885",
          "transactionIndex": "0xde",
          "logIndex": "0x112",
          "removed": false
        },
        {
          "address": "0xca35c3fe456a87e6ce7827d1d784741613463204",
          "topics": [
            "0x8c5be1e5ebec7d5bd14f71427d1e84f3dd0314c0f7b2291e5b200ac8c7c3b925",
            "0x000000000000000000000000a46a266dcbf199a71532c76967e200994c5a0d6d",
            "0x00000000000000000000000029a5134d3b22f47ad52e0a22a63247363e9f35c2"
          ],
          "data": "0x00000000000000000000000000000000000000000000021e19e0c9bab2400000",
          "blockHash": "0x7d8d6784b4466ab59df45ca9e3c172846b6b330f80cd9c3186c2d1836d430c5a",
          "blockNumber": "0x820125",
          "blockTimestamp": "0x684877e0",
          "transactionHash": "0x91b1d09045ba8a6055cb19dc123550db371e129391c4f2313158f39114876885",
          "transactionIndex": "0xde",
          "logIndex": "0x113",
          "removed": false
        },
        {
          "address": "0xca35c3fe456a87e6ce7827d1d784741613463204",
          "topics": [
            "0x8c5be1e5ebec7d5bd14f71427d1e84f3dd0314c0f7b2291e5b200ac8c7c3b925",
            "0x000000000000000000000000a46a266dcbf199a71532c76967e200994c5a0d6d",
            "0x00000000000000000000000029a5134d3b22f47ad52e0a22a63247363e9f35c2"
          ],
          "data": "0x0000000000000000000000000000000000000000000000000000000000000000",
          "blockHash": "0x7d8d6784b4466ab59df45ca9e3c172846b6b330f80cd9c3186c2d1836d430c5a",
          "blockNumber": "0x820125",
          "blockTimestamp": "0x684877e0",
          "transactionHash": "0x91b1d09045ba8a6055cb19dc123550db371e129391c4f2313158f39114876885",
          "transactionIndex": "0xde",
          "logIndex": "0x114",
          "removed": false
        },
        {
          "address": "0xca35c3fe456a87e6ce7827d1d784741613463204",
          "topics": [
            "0xddf252ad1be2c89b69c2b068fc378daa952ba7f163c4a11628f55a4df523b3ef",
            "0x000000000000000000000000a46a266dcbf199a71532c76967e200994c5a0d6d",
            "0x00000000000000000000000029a5134d3b22f47ad52e0a22a63247363e9f35c2"
          ],
          "data": "0x00000000000000000000000000000000000000000000021e19e0c9bab2400000",
          "blockHash": "0x7d8d6784b4466ab59df45ca9e3c172846b6b330f80cd9c3186c2d1836d430c5a",
          "blockNumber": "0x820125",
          "blockTimestamp": "0x684877e0",
          "transactionHash": "0x91b1d09045ba8a6055cb19dc123550db371e129391c4f2313158f39114876885",
          "transactionIndex": "0xde",
          "logIndex": "0x115",
          "removed": false
        },
        {
          "address": "0xcc1ae8cf5d3904cef3360a9532b477529b177cce",
          "topics": [
            "0x61ed099e74a97a1d7f8bb0952a88ca8b7b8ebd00c126ea04671f92a81213318a"
          ],
          "data": "0x000000000000000000000000718b92b5cb0a5552039b593faf724d182a881eda000000000000000000000000000000000000000000000000000047bf06770666",
          "blockHash": "0x7d8d6784b4466ab59df45ca9e3c172846b6b330f80cd9c3186c2d1836d430c5a",
          "blockNumber": "0x820125",
          "blockTimestamp": "0x684877e0",
          "transactionHash": "0x91b1d09045ba8a6055cb19dc123550db371e129391c4f2313158f39114876885",
          "transactionIndex": "0xde",
          "logIndex": "0x116",
          "removed": false
        },
        {
          "address": "0xcc1ae8cf5d3904cef3360a9532b477529b177cce",
          "topics": [
            "0x07ea52d82345d6e838192107d8fd7123d9c2ec8e916cd0aad13fd2b60db24644"
          ],
          "data": "0x000000000000000000000000000000000000000000000000000000000000006000000000000000000000000000000000000000000000000000000000000000c000000000000000000000000000000000000000000000000000000000000000e00000000000000000000000000000000000000000000000000000000000000002000000000000000000000000000bfb182cc999879ffb5cd7cf9f1db18a4542480000000000000000000000008eebf8b423b73bfca51a1db4b7354aa0bfca919300000000000000000000000000000000000000000000000000000000000000000000000000000000000000000000000000000000000000000000000000000002000000000000000000000000000000000000000000000000000003965f9705d0000000000000000000000000000000000000000000000000000003965f5ba47f",
          "blockHash": "0x7d8d6784b4466ab59df45ca9e3c172846b6b330f80cd9c3186c2d1836d430c5a",
          "blockNumber": "0x820125",
          "blockTimestamp": "0x684877e0",
          "transactionHash": "0x91b1d09045ba8a6055cb19dc123550db371e129391c4f2313158f39114876885",
          "transactionIndex": "0xde",
          "logIndex": "0x117",
          "removed": false
        },
        {
          "address": "0x6edce65403992e310a62460808c4b910d972f10f",
          "topics": [
            "0x1ab700d4ced0c005b164c0f789fd09fcbb0156d4c2041b8a3bfbcd961cd1567f"
          ],
          "data": "0x00000000000000000000000000000000000000000000000000000000000000600000000000000000000000000000000000000000000000000000000000000120000000000000000000000000cc1ae8cf5d3904cef3360a9532b477529b177cce000000000000000000000000000000000000000000000000000000000000009901000000000000000300009ce100000000000000000000000029a5134d3b22f47ad52e0a22a63247363e9f35c200009d3f0000000000000000000000007c9df6704ec6e18c5e656a2db542c23ab73cb24d8c981ebf344d144d28eec599c89832f51c9b0a38eb34f8a8a307e8855a7031910000000000000000000000000990be6db8c785fbbf9ded8baec612a10cae814b00000002540be40000000000000000000000000000000000000000000000000000000000000000000000000000001600030100110100000000000000000000000000030d4000000000000000000000",
          "blockHash": "0x7d8d6784b4466ab59df45ca9e3c172846b6b330f80cd9c3186c2d1836d430c5a",
          "blockNumber": "0x820125",
          "blockTimestamp": "0x684877e0",
          "transactionHash": "0x91b1d09045ba8a6055cb19dc123550db371e129391c4f2313158f39114876885",
          "transactionIndex": "0xde",
          "logIndex": "0x118",
          "removed": false
        },
        {
          "address": "0x29a5134d3b22f47ad52e0a22a63247363e9f35c2",
          "topics": [
            "0x85496b760a4b7f8d66384b9df21b381f5d1b1e79f229a47aaf4c232edc2fe59a",
            "0x8c981ebf344d144d28eec599c89832f51c9b0a38eb34f8a8a307e8855a703191",
            "0x000000000000000000000000a46a266dcbf199a71532c76967e200994c5a0d6d"
          ],
          "data": "0x0000000000000000000000000000000000000000000000000000000000009d3f00000000000000000000000000000000000000000000021e19e0c9bab240000000000000000000000000000000000000000000000000021e19e0c9bab2400000",
          "blockHash": "0x7d8d6784b4466ab59df45ca9e3c172846b6b330f80cd9c3186c2d1836d430c5a",
          "blockNumber": "0x820125",
          "blockTimestamp": "0x684877e0",
          "transactionHash": "0x91b1d09045ba8a6055cb19dc123550db371e129391c4f2313158f39114876885",
          "transactionIndex": "0xde",
          "logIndex": "0x119",
          "removed": false
        },
        {
          "address": "0xa46a266dcbf199a71532c76967e200994c5a0d6d",
          "topics": [
            "0xbc9ee36b6ca0bdd5b3840e6d329dd19a2490d880c7ce24d9818aa593adfb35be",
            "0x0000000000000000000000000990be6db8c785fbbf9ded8baec612a10cae814b",
            "0x0000000000000000000000000000000000000000000000000000000000009d3f",
            "0x0000000000000000000000000990be6db8c785fbbf9ded8baec612a10cae814b"
          ],
          "data": "0x00000000000000000000000029a5134d3b22f47ad52e0a22a63247363e9f35c200000000000000000000000000000000000000000000021e19e0c9bab2400000",
          "blockHash": "0x7d8d6784b4466ab59df45ca9e3c172846b6b330f80cd9c3186c2d1836d430c5a",
          "blockNumber": "0x820125",
          "blockTimestamp": "0x684877e0",
          "transactionHash": "0x91b1d09045ba8a6055cb19dc123550db371e129391c4f2313158f39114876885",
          "transactionIndex": "0xde",
          "logIndex": "0x11a",
          "removed": false
        }
      ],
      "logsBloom": "0x00000000000000000000000000000000000000002000000010000000000100000000000000000000200000000080000000000000000000000000000000202000000002004000000000000008400302000000000000000000000000000000080000000000000000008200000000000000000000000000140000000010000000000001000000000020000000080000000000000100010000000000000000000000020000108000000020100000820000000000000000400000000440000000000000000002000000000080000080000000000000080000000000000000008000000210250000000000000000800000002000000000008000000040400000000020",
      "type": "0x2",
      "transactionHash": "0x91b1d09045ba8a6055cb19dc123550db371e129391c4f2313158f39114876885",
      "transactionIndex": "0xde",
      "blockHash": "0x7d8d6784b4466ab59df45ca9e3c172846b6b330f80cd9c3186c2d1836d430c5a",
      "blockNumber": "0x820125",
      "gasUsed": "0x5ed4b",
      "effectiveGasPrice": "0x1480bd",
      "from": "0x0990be6db8c785fbbf9ded8baec612a10cae814b",
      "to": "0xa46a266dcbf199a71532c76967e200994c5a0d6d",
      "contractAddress": null
    }
  ],
  "libraries": [],
  "pending": [],
  "returns": {},
  "timestamp": 1749579717,
  "chain": 11155111,
  "commit": "ff1b691"
}